{
    "contractName": "CertificateIssuer",
    "abi": [
        {
            "inputs": [],
            "stateMutability": "nonpayable",
            "type": "constructor"
        },
        {
            "anonymous": false,
            "inputs": [
                {
                    "indexed": false,
                    "internalType": "uint256",
                    "name": "id",
                    "type": "uint256"
                },
                {
                    "indexed": false,
                    "internalType": "address",
                    "name": "recipient",
                    "type": "address"
                },
                {
                    "indexed": false,
                    "internalType": "string",
                    "name": "data",
                    "type": "string"
                }
            ],
            "name": "CertificateIssued",
            "type": "event"
        },
        {
            "anonymous": false,
            "inputs": [
                {
                    "indexed": false,
                    "internalType": "uint256",
                    "name": "id",
                    "type": "uint256"
                }
            ],
            "name": "CertificateRevoked",
            "type": "event"
        },
        {
            "inputs": [
                {
                    "internalType": "uint256",
                    "name": "",
                    "type": "uint256"
                }
            ],
            "name": "certificates",
            "outputs": [
                {
                    "internalType": "uint256",
                    "name": "id",
                    "type": "uint256"
                },
                {
                    "internalType": "address",
                    "name": "recipient",
                    "type": "address"
                },
                {
                    "internalType": "string",
                    "name": "data",
                    "type": "string"
                },
                {
                    "internalType": "bool",
                    "name": "isValid",
                    "type": "bool"
                }
            ],
            "stateMutability": "view",
            "type": "function",
            "constant": true
        },
        {
            "inputs": [],
            "name": "nextCertificateId",
            "outputs": [
                {
                    "internalType": "uint256",
                    "name": "",
                    "type": "uint256"
                }
            ],
            "stateMutability": "view",
            "type": "function",
            "constant": true
        },
        {
            "inputs": [],
            "name": "owner",
            "outputs": [
                {
                    "internalType": "address",
                    "name": "",
                    "type": "address"
                }
            ],
            "stateMutability": "view",
            "type": "function",
            "constant": true
        },
        {
            "inputs": [
                {
                    "internalType": "address",
                    "name": "",
                    "type": "address"
                },
                {
                    "internalType": "uint256",
                    "name": "",
                    "type": "uint256"
                }
            ],
            "name": "recipientCertificates",
            "outputs": [
                {
                    "internalType": "uint256",
                    "name": "",
                    "type": "uint256"
                }
            ],
            "stateMutability": "view",
            "type": "function",
            "constant": true
        },
        {
            "inputs": [
                {
                    "internalType": "address",
                    "name": "recipient",
                    "type": "address"
                },
                {
                    "internalType": "string",
                    "name": "data",
                    "type": "string"
                }
            ],
            "name": "issueCertificate",
            "outputs": [],
            "stateMutability": "nonpayable",
            "type": "function"
        }
    ],
    "bytecode": "0x608060405234801561001057600080fd5b50336000806101000a81548173ffffffffffffffffffffffffffffffffffffffff021916908373ffffffffffffffffffffffffffffffffffffffff16021790555060018081905550610ca7806100676000396000f3fe608060405234801561001057600080fd5b50600436106100575760003560e01c8063663b3e221461005c57806373ae38991461008f5780638da5cb5b146100bf578063a0bdb003146100dd578063bb721aab146100fb575b600080fd5b610076600480360381019061007191906104cb565b610117565b60405161008694939291906105f3565b60405180910390f35b6100a960048036038101906100a4919061066b565b6101fc565b6040516100b691906106ab565b60405180910390f35b6100c761022d565b6040516100d491906106c6565b60405180910390f35b6100e5610251565b6040516100f291906106ab565b60405180910390f35b61011560048036038101906101109190610816565b610257565b005b60026020528060005260406000206000915090508060000154908060010160009054906101000a900473ffffffffffffffffffffffffffffffffffffffff1690806002018054610166906108a1565b80601f0160208091040260200160405190810160405280929190818152602001828054610192906108a1565b80156101df5780601f106101b4576101008083540402835291602001916101df565b820191906000526020600020905b8154815290600101906020018083116101c257829003601f168201915b5050505050908060030160009054906101000a900460ff16905084565b6003602052816000526040600020818154811061021857600080fd5b90600052602060002001600091509150505481565b60008054906101000a900473ffffffffffffffffffffffffffffffffffffffff1681565b60015481565b60008054906101000a900473ffffffffffffffffffffffffffffffffffffffff1673ffffffffffffffffffffffffffffffffffffffff163373ffffffffffffffffffffffffffffffffffffffff16146102e5576040517f08c379a00000000000000000000000000000000000000000000000000000000081526004016102dc9061091e565b60405180910390fd5b604051806080016040528060015481526020018373ffffffffffffffffffffffffffffffffffffffff168152602001828152602001600115158152506002600060015481526020019081526020016000206000820151816000015560208201518160010160006101000a81548173ffffffffffffffffffffffffffffffffffffffff021916908373ffffffffffffffffffffffffffffffffffffffff160217905550604082015181600201908161039c9190610aea565b5060608201518160030160006101000a81548160ff021916908315150217905550905050600360008373ffffffffffffffffffffffffffffffffffffffff1673ffffffffffffffffffffffffffffffffffffffff16815260200190815260200160002060015490806001815401808255809150506001900390600052602060002001600090919091909150557fb7ff6cbe8f0282bf405f9ce3210be62c5620d39139a49186436e3f0fcc6a315a600154838360405161045d93929190610bbc565b60405180910390a16001600081548092919061047890610c29565b91905055505050565b6000604051905090565b600080fd5b600080fd5b6000819050919050565b6104a881610495565b81146104b357600080fd5b50565b6000813590506104c58161049f565b92915050565b6000602082840312156104e1576104e061048b565b5b60006104ef848285016104b6565b91505092915050565b61050181610495565b82525050565b600073ffffffffffffffffffffffffffffffffffffffff82169050919050565b600061053282610507565b9050919050565b61054281610527565b82525050565b600081519050919050565b600082825260208201905092915050565b60005b83811015610582578082015181840152602081019050610567565b60008484015250505050565b6000601f19601f8301169050919050565b60006105aa82610548565b6105b48185610553565b93506105c4818560208601610564565b6105cd8161058e565b840191505092915050565b60008115159050919050565b6105ed816105d8565b82525050565b600060808201905061060860008301876104f8565b6106156020830186610539565b8181036040830152610627818561059f565b905061063660608301846105e4565b95945050505050565b61064881610527565b811461065357600080fd5b50565b6000813590506106658161063f565b92915050565b600080604083850312156106825761068161048b565b5b600061069085828601610656565b92505060206106a1858286016104b6565b9150509250929050565b60006020820190506106c060008301846104f8565b92915050565b60006020820190506106db6000830184610539565b92915050565b600080fd5b600080fd5b7f4e487b7100000000000000000000000000000000000000000000000000000000600052604160045260246000fd5b6107238261058e565b810181811067ffffffffffffffff82111715610742576107416106eb565b5b80604052505050565b6000610755610481565b9050610761828261071a565b919050565b600067ffffffffffffffff821115610781576107806106eb565b5b61078a8261058e565b9050602081019050919050565b82818337600083830152505050565b60006107b96107b484610766565b61074b565b9050828152602081018484840111156107d5576107d46106e6565b5b6107e0848285610797565b509392505050565b600082601f8301126107fd576107fc6106e1565b5b813561080d8482602086016107a6565b91505092915050565b6000806040838503121561082d5761082c61048b565b5b600061083b85828601610656565b925050602083013567ffffffffffffffff81111561085c5761085b610490565b5b610868858286016107e8565b9150509250929050565b7f4e487b7100000000000000000000000000000000000000000000000000000000600052602260045260246000fd5b600060028204905060018216806108b957607f821691505b6020821081036108cc576108cb610872565b5b50919050565b7f4e6f7420617574686f72697a6564000000000000000000000000000000000000600082015250565b6000610908600e83610553565b9150610913826108d2565b602082019050919050565b60006020820190508181036000830152610937816108fb565b9050919050565b60008190508160005260206000209050919050565b60006020601f8301049050919050565b600082821b905092915050565b6000600883026109a07fffffffffffffffffffffffffffffffffffffffffffffffffffffffffffffffff82610963565b6109aa8683610963565b95508019841693508086168417925050509392505050565b6000819050919050565b60006109e76109e26109dd84610495565b6109c2565b610495565b9050919050565b6000819050919050565b610a01836109cc565b610a15610a0d826109ee565b848454610970565b825550505050565b600090565b610a2a610a1d565b610a358184846109f8565b505050565b5b81811015610a5957610a4e600082610a22565b600181019050610a3b565b5050565b601f821115610a9e57610a6f8161093e565b610a7884610953565b81016020851015610a87578190505b610a9b610a9385610953565b830182610a3a565b50505b505050565b600082821c905092915050565b6000610ac160001984600802610aa3565b1980831691505092915050565b6000610ada8383610ab0565b9150826002028217905092915050565b610af382610548565b67ffffffffffffffff811115610b0c57610b0b6106eb565b5b610b1682546108a1565b610b21828285610a5d565b600060209050601f831160018114610b545760008415610b42578287015190505b610b4c8582610ace565b865550610bb4565b601f198416610b628661093e565b60005b82811015610b8a57848901518255600182019150602085019450602081019050610b65565b86831015610ba75784890151610ba3601f891682610ab0565b8355505b6001600288020188555050505b505050505050565b6000606082019050610bd160008301866104f8565b610bde6020830185610539565b8181036040830152610bf0818461059f565b9050949350505050565b7f4e487b7100000000000000000000000000000000000000000000000000000000600052601160045260246000fd5b6000610c3482610495565b91507fffffffffffffffffffffffffffffffffffffffffffffffffffffffffffffffff8203610c6657610c65610bfa565b5b60018201905091905056fea2646970667358221220cfe523c2e09176c04202a6109df35d66dda4c565f7ff14c51994150e2a9392b264736f6c63430008110033",
    "immutableReferences": {},
    "source": "// SPDX-License-Identifier: MIT\r\npragma solidity >=0.4.22 <0.9.0;\r\n\r\ncontract CertificateIssuer {\r\n    \r\n    struct Certificate {\r\n        uint256 id;          // Unique certificate ID\r\n        address recipient;   // Address of the certificate recipient\r\n        string data;         // Data associated with the certificate (e.g., name, course, date)\r\n        bool isValid;        // Indicates if the certificate is valid (true) or revoked (false)\r\n    }\r\n\r\n    address public owner;             // Address of the contract owner\r\n    uint256 public nextCertificateId; // Counter for the next certificate ID\r\n    mapping(uint256 => Certificate) public certificates; // Mapping from certificate ID to Certificate struct\r\n    mapping(address => uint256[]) public recipientCertificates; // Mapping from recipient address to an array of certificate IDs\r\n\r\n    event CertificateIssued(uint256 id, address recipient, string data); // Event emitted when a certificate is issued\r\n    event CertificateRevoked(uint256 id); // Event emitted when a certificate is revoked\r\n\r\n    modifier onlyOwner() {\r\n        require(msg.sender == owner, \"Not authorized\"); // Restrict access to the contract owner\r\n        _;\r\n    }\r\n\r\n    constructor() {\r\n        owner = msg.sender;        // Set the contract owner to the address that deploys the contract\r\n        nextCertificateId = 1;     // Start certificate IDs from 1\r\n    }\r\n\r\n    // Function to issue a new certificate\r\n    function issueCertificate(address recipient, string memory data) public onlyOwner {\r\n        certificates[nextCertificateId] = Certificate(nextCertificateId, recipient, data, true); // Create new certificate\r\n        recipientCertificates[recipient].push(nextCertificateId); // Add certificate ID to recipient's list\r\n        emit CertificateIssued(nextCertificateId, recipient, data); // Emit event for certificate issuance\r\n        nextCertificateId++; // Increment the certificate ID counter\r\n    }\r\n\r\n    // // Function to verify the validity of a certificate\r\n    // function verifyCertificate(uint256 id) public view returns (bool) {\r\n    //     return certificates[id].isValid; // Return the validity status of the certificate\r\n    // }\r\n\r\n    // // Function to revoke an existing certificate\r\n    // function revokeCertificate(uint256 id) public onlyOwner {\r\n    //     certificates[id].isValid = false; // Set the certificate's validity status to false\r\n    //     emit CertificateRevoked(id); // Emit event for certificate revocation\r\n    // }\r\n\r\n    // // Function to get all certificate IDs issued to a specific recipient\r\n    // function getCertificatesByRecipient(address recipient) public view returns (uint256[] memory) {\r\n    //     return recipientCertificates[recipient]; // Return the array of certificate IDs\r\n    // }\r\n}\r\n",
    "sourcePath": "C:\\academic\\contracts\\Credentials.sol",
    "compiler": {
        "name": "solc",
        "version": "0.8.17+commit.8df45f5f.Emscripten.clang"
    },
    "schemaVersion": "3.4.16",
    "updatedAt": "2024-07-01T19:19:20.676Z",
    "networkType": "ethereum",
    "devdoc": {
        "kind": "dev",
        "methods": {},
        "version": 1
    },
    "userdoc": {
        "kind": "user",
        "methods": {},
        "version": 1
    }
}