{
  "contractName": "CertificateIssuer",
  "abi": [
    {
      "inputs": [],
      "stateMutability": "nonpayable",
      "type": "constructor"
    },
    {
      "anonymous": false,
      "inputs": [
        {
          "indexed": false,
          "internalType": "uint256",
          "name": "id",
          "type": "uint256"
        },
        {
          "indexed": false,
          "internalType": "address",
          "name": "recipient",
          "type": "address"
        },
        {
          "indexed": false,
          "internalType": "string",
          "name": "data",
          "type": "string"
        }
      ],
      "name": "CertificateIssued",
      "type": "event"
    },
    {
      "anonymous": false,
      "inputs": [
        {
          "indexed": false,
          "internalType": "uint256",
          "name": "id",
          "type": "uint256"
        }
      ],
      "name": "CertificateRevoked",
      "type": "event"
    },
    {
      "inputs": [
        {
          "internalType": "uint256",
          "name": "",
          "type": "uint256"
        }
      ],
      "name": "certificates",
      "outputs": [
        {
          "internalType": "uint256",
          "name": "id",
          "type": "uint256"
        },
        {
          "internalType": "address",
          "name": "recipient",
          "type": "address"
        },
        {
          "internalType": "string",
          "name": "data",
          "type": "string"
        },
        {
          "internalType": "bool",
          "name": "isValid",
          "type": "bool"
        }
      ],
      "stateMutability": "view",
      "type": "function",
      "constant": true
    },
    {
      "inputs": [],
      "name": "nextCertificateId",
      "outputs": [
        {
          "internalType": "uint256",
          "name": "",
          "type": "uint256"
        }
      ],
      "stateMutability": "view",
      "type": "function",
      "constant": true
    },
    {
      "inputs": [],
      "name": "owner",
      "outputs": [
        {
          "internalType": "address",
          "name": "",
          "type": "address"
        }
      ],
      "stateMutability": "view",
      "type": "function",
      "constant": true
    },
    {
      "inputs": [
        {
          "internalType": "address",
          "name": "",
          "type": "address"
        },
        {
          "internalType": "uint256",
          "name": "",
          "type": "uint256"
        }
      ],
      "name": "recipientCertificates",
      "outputs": [
        {
          "internalType": "uint256",
          "name": "",
          "type": "uint256"
        }
      ],
      "stateMutability": "view",
      "type": "function",
      "constant": true
    },
    {
      "inputs": [
        {
          "internalType": "address",
          "name": "recipient",
          "type": "address"
        },
        {
          "internalType": "string",
          "name": "data",
          "type": "string"
        }
      ],
      "name": "issueCertificate",
      "outputs": [],
      "stateMutability": "nonpayable",
      "type": "function"
    },
    {
      "inputs": [
        {
          "internalType": "uint256",
          "name": "id",
          "type": "uint256"
        }
      ],
      "name": "verifyCertificate",
      "outputs": [
        {
          "internalType": "bool",
          "name": "",
          "type": "bool"
        },
        {
          "internalType": "string",
          "name": "",
          "type": "string"
        }
      ],
      "stateMutability": "view",
      "type": "function",
      "constant": true
    },
    {
      "inputs": [
        {
          "internalType": "uint256",
          "name": "id",
          "type": "uint256"
        }
      ],
      "name": "revokeCertificate",
      "outputs": [],
      "stateMutability": "nonpayable",
      "type": "function"
    }
  ],
  "bytecode": "0x608060405234801561001057600080fd5b50336000806101000a81548173ffffffffffffffffffffffffffffffffffffffff021916908373ffffffffffffffffffffffffffffffffffffffff16021790555060018081905550610f08806100676000396000f3fe608060405234801561001057600080fd5b506004361061007d5760003560e01c806373ae38991161005b57806373ae3899146101025780638da5cb5b14610132578063a0bdb00314610150578063bb721aab1461016e5761007d565b806306f5497e146100825780631692a9421461009e578063663b3e22146100cf575b600080fd5b61009c600480360381019061009791906106fc565b61018a565b005b6100b860048036038101906100b391906106fc565b610281565b6040516100c69291906107d4565b60405180910390f35b6100e960048036038101906100e491906106fc565b610348565b6040516100f99493929190610854565b60405180910390f35b61011c600480360381019061011791906108cc565b61042d565b604051610129919061090c565b60405180910390f35b61013a61045e565b6040516101479190610927565b60405180910390f35b610158610482565b604051610165919061090c565b60405180910390f35b61018860048036038101906101839190610a77565b610488565b005b60008054906101000a900473ffffffffffffffffffffffffffffffffffffffff1673ffffffffffffffffffffffffffffffffffffffff163373ffffffffffffffffffffffffffffffffffffffff1614610218576040517f08c379a000000000000000000000000000000000000000000000000000000000815260040161020f90610b1f565b60405180910390fd5b60006002600083815260200190815260200160002060030160006101000a81548160ff0219169083151502179055507fefa6c5f47ac2523bb4db18032377bf7fdce0fa9d86eddcae1ca9bba38be615d781604051610276919061090c565b60405180910390a150565b6000606060006002600085815260200190815260200160002090508060030160009054906101000a900460ff16816002018080546102be90610b6e565b80601f01602080910402602001604051908101604052809291908181526020018280546102ea90610b6e565b80156103375780601f1061030c57610100808354040283529160200191610337565b820191906000526020600020905b81548152906001019060200180831161031a57829003601f168201915b505050505090509250925050915091565b60026020528060005260406000206000915090508060000154908060010160009054906101000a900473ffffffffffffffffffffffffffffffffffffffff169080600201805461039790610b6e565b80601f01602080910402602001604051908101604052809291908181526020018280546103c390610b6e565b80156104105780601f106103e557610100808354040283529160200191610410565b820191906000526020600020905b8154815290600101906020018083116103f357829003601f168201915b5050505050908060030160009054906101000a900460ff16905084565b6003602052816000526040600020818154811061044957600080fd5b90600052602060002001600091509150505481565b60008054906101000a900473ffffffffffffffffffffffffffffffffffffffff1681565b60015481565b60008054906101000a900473ffffffffffffffffffffffffffffffffffffffff1673ffffffffffffffffffffffffffffffffffffffff163373ffffffffffffffffffffffffffffffffffffffff1614610516576040517f08c379a000000000000000000000000000000000000000000000000000000000815260040161050d90610b1f565b60405180910390fd5b604051806080016040528060015481526020018373ffffffffffffffffffffffffffffffffffffffff168152602001828152602001600115158152506002600060015481526020019081526020016000206000820151816000015560208201518160010160006101000a81548173ffffffffffffffffffffffffffffffffffffffff021916908373ffffffffffffffffffffffffffffffffffffffff16021790555060408201518160020190816105cd9190610d4b565b5060608201518160030160006101000a81548160ff021916908315150217905550905050600360008373ffffffffffffffffffffffffffffffffffffffff1673ffffffffffffffffffffffffffffffffffffffff16815260200190815260200160002060015490806001815401808255809150506001900390600052602060002001600090919091909150557fb7ff6cbe8f0282bf405f9ce3210be62c5620d39139a49186436e3f0fcc6a315a600154838360405161068e93929190610e1d565b60405180910390a1600160008154809291906106a990610e8a565b91905055505050565b6000604051905090565b600080fd5b600080fd5b6000819050919050565b6106d9816106c6565b81146106e457600080fd5b50565b6000813590506106f6816106d0565b92915050565b600060208284031215610712576107116106bc565b5b6000610720848285016106e7565b91505092915050565b60008115159050919050565b61073e81610729565b82525050565b600081519050919050565b600082825260208201905092915050565b60005b8381101561077e578082015181840152602081019050610763565b60008484015250505050565b6000601f19601f8301169050919050565b60006107a682610744565b6107b0818561074f565b93506107c0818560208601610760565b6107c98161078a565b840191505092915050565b60006040820190506107e96000830185610735565b81810360208301526107fb818461079b565b90509392505050565b61080d816106c6565b82525050565b600073ffffffffffffffffffffffffffffffffffffffff82169050919050565b600061083e82610813565b9050919050565b61084e81610833565b82525050565b60006080820190506108696000830187610804565b6108766020830186610845565b8181036040830152610888818561079b565b90506108976060830184610735565b95945050505050565b6108a981610833565b81146108b457600080fd5b50565b6000813590506108c6816108a0565b92915050565b600080604083850312156108e3576108e26106bc565b5b60006108f1858286016108b7565b9250506020610902858286016106e7565b9150509250929050565b60006020820190506109216000830184610804565b92915050565b600060208201905061093c6000830184610845565b92915050565b600080fd5b600080fd5b7f4e487b7100000000000000000000000000000000000000000000000000000000600052604160045260246000fd5b6109848261078a565b810181811067ffffffffffffffff821117156109a3576109a261094c565b5b80604052505050565b60006109b66106b2565b90506109c2828261097b565b919050565b600067ffffffffffffffff8211156109e2576109e161094c565b5b6109eb8261078a565b9050602081019050919050565b82818337600083830152505050565b6000610a1a610a15846109c7565b6109ac565b905082815260208101848484011115610a3657610a35610947565b5b610a418482856109f8565b509392505050565b600082601f830112610a5e57610a5d610942565b5b8135610a6e848260208601610a07565b91505092915050565b60008060408385031215610a8e57610a8d6106bc565b5b6000610a9c858286016108b7565b925050602083013567ffffffffffffffff811115610abd57610abc6106c1565b5b610ac985828601610a49565b9150509250929050565b7f4e6f7420617574686f72697a6564000000000000000000000000000000000000600082015250565b6000610b09600e8361074f565b9150610b1482610ad3565b602082019050919050565b60006020820190508181036000830152610b3881610afc565b9050919050565b7f4e487b7100000000000000000000000000000000000000000000000000000000600052602260045260246000fd5b60006002820490506001821680610b8657607f821691505b602082108103610b9957610b98610b3f565b5b50919050565b60008190508160005260206000209050919050565b60006020601f8301049050919050565b600082821b905092915050565b600060088302610c017fffffffffffffffffffffffffffffffffffffffffffffffffffffffffffffffff82610bc4565b610c0b8683610bc4565b95508019841693508086168417925050509392505050565b6000819050919050565b6000610c48610c43610c3e846106c6565b610c23565b6106c6565b9050919050565b6000819050919050565b610c6283610c2d565b610c76610c6e82610c4f565b848454610bd1565b825550505050565b600090565b610c8b610c7e565b610c96818484610c59565b505050565b5b81811015610cba57610caf600082610c83565b600181019050610c9c565b5050565b601f821115610cff57610cd081610b9f565b610cd984610bb4565b81016020851015610ce8578190505b610cfc610cf485610bb4565b830182610c9b565b50505b505050565b600082821c905092915050565b6000610d2260001984600802610d04565b1980831691505092915050565b6000610d3b8383610d11565b9150826002028217905092915050565b610d5482610744565b67ffffffffffffffff811115610d6d57610d6c61094c565b5b610d778254610b6e565b610d82828285610cbe565b600060209050601f831160018114610db55760008415610da3578287015190505b610dad8582610d2f565b865550610e15565b601f198416610dc386610b9f565b60005b82811015610deb57848901518255600182019150602085019450602081019050610dc6565b86831015610e085784890151610e04601f891682610d11565b8355505b6001600288020188555050505b505050505050565b6000606082019050610e326000830186610804565b610e3f6020830185610845565b8181036040830152610e51818461079b565b9050949350505050565b7f4e487b7100000000000000000000000000000000000000000000000000000000600052601160045260246000fd5b6000610e95826106c6565b91507fffffffffffffffffffffffffffffffffffffffffffffffffffffffffffffffff8203610ec757610ec6610e5b565b5b60018201905091905056fea2646970667358221220bb20f963cdea1fae0183231cfbed23e960c51cdc4f1eadb56adbc4671cb8c81564736f6c63430008110033",
  "immutableReferences": {},
  "source": "// SPDX-License-Identifier: MIT\r\n\r\npragma solidity >=0.4.22 <0.9.0;\r\n\r\ncontract CertificateIssuer {\r\n    \r\n    struct Certificate {\r\n        uint256 id;          // Unique certificate ID\r\n        address recipient;   // Address of the certificate recipient\r\n        string data;         // Data associated with the certificate (e.g., name, course, date)\r\n        bool isValid;        // Indicates if the certificate is valid (true) or revoked (false)\r\n    }\r\n\r\n    address public owner;             // Address of the contract owner\r\n    uint256 public nextCertificateId; // Counter for the next certificate ID\r\n    mapping(uint256 => Certificate) public certificates; // Mapping from certificate ID to Certificate struct\r\n    mapping(address => uint256[]) public recipientCertificates; // Mapping from recipient address to an array of certificate IDs\r\n\r\n    event CertificateIssued(uint256 id, address recipient, string data); // Event emitted when a certificate is issued\r\n    event CertificateRevoked(uint256 id); // Event emitted when a certificate is revoked\r\n\r\n    modifier onlyOwner() {\r\n        require(msg.sender == owner, \"Not authorized\"); // Restrict access to the contract owner\r\n        _;\r\n    }\r\n\r\n    constructor() {\r\n        owner = msg.sender;        // Set the contract owner to the address that deploys the contract\r\n        nextCertificateId = 1;     // Start certificate IDs from 1\r\n    }\r\n\r\n    // Function to issue a new certificate\r\n    function issueCertificate(address recipient, string memory data) public onlyOwner {\r\n        certificates[nextCertificateId] = Certificate(nextCertificateId, recipient, data, true); // Create new certificate\r\n        recipientCertificates[recipient].push(nextCertificateId); // Add certificate ID to recipient's list\r\n        emit CertificateIssued(nextCertificateId, recipient, data); // Emit event for certificate issuance\r\n        nextCertificateId++; // Increment the certificate ID counter\r\n    }\r\n\r\n   \r\n    // Function to verify the validity of a certificate and fetch its associated data\r\n    function verifyCertificate(uint256 id) public view returns (bool, string memory) {\r\n        Certificate storage cert = certificates[id];\r\n        return (cert.isValid, cert.data); // Return the validity status and associated data of the certificate\r\n    }\r\n\r\n    // Function to revoke an existing certificate\r\n    function revokeCertificate(uint256 id) public onlyOwner {\r\n        certificates[id].isValid = false; // Set the certificate's validity status to false\r\n        emit CertificateRevoked(id); // Emit event for certificate revocation\r\n    }\r\n\r\n    // // Function to get all certificate IDs issued to a specific recipient\r\n    // function getCertificatesByRecipient(address recipient) public view returns (uint256[] memory) {\r\n    //     return recipientCertificates[recipient]; // Return the array of certificate IDs\r\n    // }\r\n}\r\n\r\n// pragma solidity >=0.4.22 <0.9.0;\r\n\r\n// contract CertificateIssuer {\r\n\r\n//     struct Certificate {\r\n//         string code;        // Unique certificate code\r\n//         address recipient;  // Address of the certificate recipient\r\n//         string data;        // Data associated with the certificate (e.g., name, course, date)\r\n//         bool isValid;       // Indicates if the certificate is valid (true) or revoked (false)\r\n//     }\r\n\r\n//     address public owner;  // Address of the contract owner\r\n//     mapping(string => Certificate) public certificates; // Mapping from certificate code to Certificate struct\r\n//     mapping(address => string[]) public recipientCertificates; // Mapping from recipient address to an array of certificate codes\r\n\r\n//     event CertificateIssued(string code, address recipient, string data); // Event emitted when a certificate is issued\r\n//     event CertificateRevoked(string code); // Event emitted when a certificate is revoked\r\n\r\n//     modifier onlyOwner() {\r\n//         require(msg.sender == owner, \"Not authorized\"); // Restrict access to the contract owner\r\n//         _;\r\n//     }\r\n\r\n//     constructor() {\r\n//         owner = msg.sender; // Set the contract owner to the address that deploys the contract\r\n//     }\r\n\r\n//     // Function to issue a new certificate\r\n//     function issueCertificate(address recipient, string memory data) public onlyOwner {\r\n//         string memory code = generateCertificateCode(recipient, data); // Generate unique certificate code\r\n//         certificates[code] = Certificate(code, recipient, data, true); // Create new certificate\r\n//         recipientCertificates[recipient].push(code); // Add certificate code to recipient's list\r\n//         emit CertificateIssued(code, recipient, data); // Emit event for certificate issuance\r\n//     }\r\n\r\n//     // Function to verify the validity of a certificate and fetch its associated data\r\n//     function verifyCertificate(string memory code) public view returns (bool, string memory) {\r\n//         Certificate storage cert = certificates[code];\r\n//         return (cert.isValid, cert.data); // Return the validity status and associated data of the certificate\r\n//     }\r\n\r\n//     // // Function to revoke an existing certificate\r\n//     // function revokeCertificate(string memory code) public onlyOwner {\r\n//     //     certificates[code].isValid = false; // Set the certificate's validity status to false\r\n//     //     emit CertificateRevoked(code); // Emit event for certificate revocation\r\n//     // }\r\n\r\n//     // // Function to get all certificate codes issued to a specific recipient\r\n//     // function getCertificatesByRecipient(address recipient) public view returns (string[] memory) {\r\n//     //     return recipientCertificates[recipient]; // Return the array of certificate codes\r\n//     // }\r\n\r\n//     // Internal function to generate a unique certificate code\r\n//     function generateCertificateCode(address recipient, string memory data) internal view returns (string memory) {\r\n//         bytes32 hash = keccak256(abi.encodePacked(block.timestamp, recipient, data));\r\n//         return toHexString(hash);\r\n//     }\r\n\r\n//     // Internal function to convert bytes32 to string (hexadecimal representation)\r\n//     function toHexString(bytes32 data) internal pure returns (string memory) {\r\n//         bytes memory alphabet = \"0123456789abcdef\";\r\n//         bytes memory str = new bytes(64);\r\n//         for (uint256 i = 0; i < 32; i++) {\r\n//             str[i*2] = alphabet[uint8(data[i] >> 4)];\r\n//             str[1+i*2] = alphabet[uint8(data[i] & 0x0f)];\r\n//         }\r\n//         return string(str);\r\n//     }\r\n// }\r\n",
  "sourcePath": "C:\\academic\\contracts\\Credentials.sol",
  "compiler": {
    "name": "solc",
    "version": "0.8.17+commit.8df45f5f.Emscripten.clang"
  },
  "schemaVersion": "3.4.16",
  "updatedAt": "2024-07-17T22:13:03.679Z",
  "networkType": "ethereum",
  "devdoc": {
    "kind": "dev",
    "methods": {},
    "version": 1
  },
  "userdoc": {
    "kind": "user",
    "methods": {},
    "version": 1
  }
}